:100000000C9437000C945F000C945F000C945F001C
:100010000C945F000C945F000C945F000C945F00E4
:100020000C945F000C945F000C945F000C945F00D4
:100030000C945F000C945F000C9430070C945F00EC
:100040000C945F000C945F000C945F000C945F00B4
:100050000C945F000C945F000C945F000C945F00A4
:100060000C945F000C945F0097072C083008112453
:100070001FBECFEFD8E0DEBFCDBF11E0A0E0B1E002
:10008000EAE2F4E102C005900D92A235B107D9F77A
:1000900021E0A2E5B1E001C01D92AC39B207E1F761
:1000A00010E0C6E3D0E004C02197FE010E94D5080D
:1000B000C433D107C9F70E9459030C94080A0C9461
:1000C00000000F931F93CF93DF9300D01F92CDB703
:1000D000DEB78C01DC01ED91FC910190F081E02D07
:1000E0002B834A8369830995D801ED91FC910480A3
:1000F000F581E02D6981C8010995D801ED91FC9148
:100100000480F581E02D4A81642FC8010995D8014A
:10011000ED91FC910480F581E02D2B81622FC801C7
:100120000995D801ED91FC910280F381E02DC80181
:100130000F900F900F90DF91CF911F910F91099425
:100140000F931F93CF93DF9300D000D0CDB7DEB7CE
:100150008C01DC01ED91FC910190F081E02D2C836C
:100160003B834A8369830995D801ED91FC91048012
:10017000F581E02D6981C8010995D801ED91FC91C7
:100180000480F581E02D4A81642FC8010995D801CA
:10019000ED91FC910480F581E02D3B81632FC80136
:1001A0000995D801ED91FC910480F581E02D2C8119
:1001B000622FC8010995D801ED91FC910280F3816D
:1001C000E02DC8010F900F900F900F90DF91CF910D
:1001D0001F910F910994CF92DF92EF92FF920F93AC
:1001E0001F93CF93DF9300D000D0CDB7DEB76C0163
:1001F000DC01ED91FC910190F081E02D2B833C839B
:100200004A8369830995D601ED91FC910480F581BB
:10021000E02D6981C6010995D601ED91FC9104801C
:10022000F581E02D4A81642FC60109952B81E22ECC
:100230003C81F32E0E0D1F1DD601ED91FC91E016B1
:10024000F10649F0D7016D917D010480F581E02D23
:10025000C6010995F1CF0280F381E02DC6010F9010
:100260000F900F900F90DF91CF911F910F91FF9002
:10027000EF90DF90CF900994EF92FF921F93CF936E
:10028000DF931F92CDB7DEB77C01162FDC01ED9115
:10029000FC910190F081E02D49830995D701ED9102
:1002A000FC910480F581E02D612FC7010995D701EC
:1002B000ED91FC910480F581E02D4981642FC70107
:1002C0000995D701ED91FC910190F081E02DC701D6
:1002D0000995D701ED91FC91612F61600480F58152
:1002E000E02DC7010995D701ED91FC910680F781BA
:1002F000E02D60E0C7010995182FD701ED91FC9121
:100300000280F381E02DC7010995812F0F90DF91C5
:10031000CF911F91FF90EF900895EF92FF920F936E
:100320001F93CF93DF931F92CDB7DEB77C01162FBB
:10033000DC01ED91FC910190F081E02D498309955C
:10034000D701ED91FC910480F581E02D612FC7016B
:100350000995D701ED91FC910480F581E02D49814B
:10036000642FC7010995D701ED91FC910190F081AF
:10037000E02DC7010995D701ED91FC91612F6160D6
:100380000480F581E02DC7010995D701ED91FC911D
:100390000680F781E02D61E0C7010995082F10E084
:1003A000102F0027D701ED91FC910680F781E02DF9
:1003B00060E0C7010995082BD701ED91FC910280FF
:1003C000F381E02DC7010995C8010F90DF91CF910E
:1003D0001F910F91FF90EF900895CF92DF92EF92CF
:1003E000FF920F931F93CF93DF9300D01F92CDB74F
:1003F000DEB76C01F62EDC01ED91FC910190F081ED
:10040000E02D2A833B8349830995D601ED91FC9128
:100410000480F581E02D6F2DC6010995D601ED917F
:10042000FC910480F581E02D4981642FC601099576
:10043000D601ED91FC910190F081E02DC601099566
:10044000D601ED91FC916F2D61600480F581E02D66
:10045000C60109952A81E22E3B81F32E0E0D1F1D48
:10046000D601ED91FC91E016F10651F00680F7817E
:10047000E02D61E0C6010995F70181937F01F0CF7E
:100480000280F381E02DC6010F900F900F90DF9155
:10049000CF911F910F91FF90EF90DF90CF90099433
:1004A0002BE431E0FC013183208306960C9436085E
:1004B000CF93DF93EC010E945002CE01DF91CF91E8
:1004C0000C94C6060F931F93CF93DF93EC0106960F
:1004D0000E9444088AA19BA16AE070E00E94800803
:1004E000892BB1F40B8D1C8D66E071E087E991E0FA
:1004F0000E949B07A801110F660B770B87E991E01B
:100500000E94BF076DE271E087E991E00E949B07BE
:100510008AA19BA101969BA38AA3DF91CF911F91F2
:100520000F910895882321F03D98823019F00895A5
:100530003D9A0895459A0895000008951F93CF931A
:10054000DF93162F389880E00E9492020E949C024E
:10055000D8E0C0E0CC0F81E00E9492020E949C0291
:100560003099C16080E00E9492020E949C02D150AA
:1005700089F7112311F0389A01C038980E949C0223
:1005800081E00E9492020E949C0280E00E949202FE
:100590000E949C0238980E949C028C2FDF91CF9180
:1005A0001F910895CF93DF93D62FC8E080E00E947B
:1005B00092020E949C02D7FF02C0389801C0389A6C
:1005C0000E949C0281E00E9492020E949C02DD0F28
:1005D000C15061F780E00E9492020E949C0238980C
:1005E0000E949C0281E00E9492020E949C02C6B17D
:1005F000C095C17080E00E9492020E949C028C2FE4
:10060000DF91CF91089581E00E949202389881E0B5
:100610000E949202389A80E00E94920238980C94CC
:100620009C0280E00E949202389A81E00E9492022D
:10063000389A81E00E94920238980C949C020F93A1
:100640001F93CF93DF93EC018BE491E09983888330
:1006500083E391E09B838A83389881E00E94920231
:10066000409845988E010A5F1F4FC8010E943408C8
:10067000BE016E5F7F4FC8010E9438088C011BA22B
:100680001AA260E171E087E991E00E949B07A8014E
:10069000110F660B770B87E991E00E94BF076DE2AF
:1006A00071E087E991E0DF91CF911F910F910C9458
:1006B0009B07CF93DF93CDB7DEB7A4970FB6F8941F
:1006C000DEBF0FBECDBF6DE171E087E991E00E9412
:1006D0009B07CE0101960E941F0320E04AE050E0F4
:1006E000BE016F5F7F4F82E591E00E94ED0682E5DB
:1006F00091E00E941007FBCF089508950F931F9378
:10070000CF93DF93EC0189899A89DC01ED91FC910B
:100710000084F185E02D21E04BE062E509958989AF
:100720009A89DC01ED91FC919E012D5F3F4F02887B
:10073000F389E02D0EE010E044E162E509958D8536
:1007400090E0982F88272E85822B1A829C012451B5
:100750003109213E314020F49983888381E08A83E6
:1007600088819981DF91CF911F910F910895FC01AC
:10077000808191810895AF92BF92CF92DF92EF92E4
:10078000FF920F931F93CF93DF93EC018B015A01DC
:10079000DB011C9289899A89DC01ED91FC9100842E
:1007A000F185E02D21E040E862E5099589899A8983
:1007B000DC01ED91FC910084F185E02D21E04FEF0B
:1007C00062E5099589899A89DC01ED91FC910084A3
:1007D000F185E02D20E040E062E5099589899A895C
:1007E000DC01ED91FC910084F185E02D26E04FEFD6
:1007F00062E5099589899A89FC01A081B1811896E1
:10080000ED90FC9019971E96ED91FC911F9743E88F
:1008100062E50995282F246043E862E589899A8971
:10082000F701099589899A89DC01ED91FC91008491
:10083000F185E02D27E04FEF62E5099589899A89D6
:10084000DC01ED91FC910084F185E02D21E041E88F
:1008500062E5099589899A89DC01ED91FC91008412
:10086000F185E02D21E040E862E5099589899A89C2
:10087000DC01ED91FC910084F185E02D2BE644E94B
:1008800062E5099589899A89DC01ED91FC910084E2
:10089000F185E02D20E043E862E5099581E4C82E6A
:1008A00082E4D82E8FE0E82EF12C89899A89DC0128
:1008B000ED91FC910684F785E02D43E862E509950A
:1008C000811108C0B1E0CB1AD108E108F10869F73D
:1008D00080E081C089899A89DC01ED91FC910084D6
:1008E000F185E02D21E043E862E5099589899A893F
:1008F000DC01ED91FC910684F785E02D42E962E58B
:100900000995982F9F77F8019083982F991F992721
:10091000991FD5019C9389899A89DC01ED91FC91FD
:100920000084F185E02D20E041E862E509958989A0
:100930009A89DC01ED91FC910084F185E02D26E09F
:100940004FEF62E5099589899A89FC01A081B181FF
:1009500018960D911C9119971E96ED91FC911F9779
:1009600043E862E50995282F43E862E589899A8979
:10097000F801099589899A89DC01ED91FC9100843F
:10098000F185E02D21E04FEF62E5099589899A898B
:10099000DC01ED91FC910084F185E02D21E040E047
:1009A00062E5099589899A89DC01ED91FC910084C1
:1009B000F185E02D20E04FEF62E5099589899A895C
:1009C000DC01ED91FC910084F185E02D20E040E810
:1009D00062E5099581E0DF91CF911F910F91FF9022
:1009E000EF90DF90CF90BF90AF900895EF92FF927D
:1009F0000F931F93CF93DF93CDB7DEB728970FB632
:100A0000F894DEBF0FBECDBF7C01CB01D70152965B
:100A10007C936E93519720E030E211963C932E9395
:100A200012961C92FB01A081B18118960D911C9128
:100A300019971E96ED91FC911F9749E862E509957B
:100A4000282F216049E862E5D70151968D919C914C
:100A50005297F8010995D70151968D919C91529723
:100A6000DC01ED91FC910684F785E02D40EC62E518
:100A700009958E3E09F061C1F70181899289DC01F7
:100A8000ED91FC910084F185E02D21E04FEB62E5D2
:100A9000099581EA96E8A1E0B0E00197A109B109C2
:100AA00011F00000FACFF70181899289DC01ED9104
:100AB000FC910084F185E02D20E048E862E509958D
:100AC000F70181899289DC01ED91FC910084F18527
:100AD000E02D21E040E862E50995F70181899289DE
:100AE000DC01ED91FC910084F185E02D21E04FEFD8
:100AF00062E50995F70181899289DC01ED91FC910C
:100B00000084F185E02D20E040E062E50995F701E1
:100B100081899289DC01ED91FC910684F785E02DB5
:100B200041E962E50995F70181899289DC01ED913E
:100B3000FC910084F185E02D21E040E062E509951B
:100B4000F70181899289DC01ED91FC910084F185A6
:100B5000E02D20E04FEF62E50995F7018189928948
:100B6000DC01ED91FC910084F185E02D20E040E86E
:100B700062E509951886AE01495F5F4FBE01685F67
:100B80007F4FC7010E94BB03F70181899289DC0175
:100B9000ED91FC910288F389E02D06E010E09E01C2
:100BA0002F5F3F4F40EB62E50995F70181899289FC
:100BB000DC01ED91FC910084F185E02D21E04FEF07
:100BC00062E50995F70181899289DC01ED91FC913B
:100BD0000084F185E02D20E04FE462E50995F701FE
:100BE00081899289DC01ED91FC910084F185E02DF1
:100BF0002CE24EE462E50995F70181899289DC01D6
:100C0000ED91FC910084F185E02D20E04FEF62E54D
:100C10000995F70181899289DC01ED91FC910084AD
:100C2000F185E02D24EB46EB62E509958F8181117A
:100C300002C040E001C04CE0A88580E090E061E0A7
:100C400070E0282F269526952695582F5770E1E0BD
:100C5000F0E0EC0FFD1FE20FF11D841710F09A1366
:100C60000AC09B0101C0220F5A95EAF720953081F6
:100C70002323208309C0208130E002C035952795C9
:100C80005A95E2F720FD9F5F8F5F8033D1F6F70121
:100C900081899289DC01ED91FC910484F585E02D38
:100CA00006E010E09E012F5F3F4F40EB62E50995A3
:100CB000F70181899289DC01ED91FC910684F78529
:100CC000E02D44E862E50995182FF70181899289A2
:100CD000DC01ED91FC910084F185E02D24E04AE0F7
:100CE00062E50995F70181899289DC01ED91FC911A
:100CF000212F2F7E0084F185E02D44E862E50995DF
:100D0000F70181899289DC01ED91FC910084F185E4
:100D1000E02D21E04BE062E50995F7018189928998
:100D2000DC01ED91FC910084F185E02D22E040E0B2
:100D300062E5099580E090E002C08EEF9FEF289673
:100D40000FB6F894DEBF0FBECDBFDF91CF911F91DC
:100D50000F91FF90EF9008951092C50087E6809361
:100D6000C400E2ECF0E0808186608083E1ECF0E09A
:100D7000808188618083089508956093C600809182
:100D8000C00085FD02C00000FACF08950C947009E0
:100D9000E3E5F1E080E090E011821082138212829C
:100DA00015821482DC01AD5ABE4F16961C9216971E
:100DB00017961C92389608968034910569F784B589
:100DC000826084BD89EF87BD83E085BD80916E0020
:100DD000826080936E0078940895F894E3E5F1E0E2
:100DE00080E090E0A081B181AB2B89F4FC0133E07D
:100DF000EE0FFF1F3A95E1F7ED5AFE4F71836083C6
:100E000053834283558344831682278307C0019608
:100E100038968830910531F78FEF9FEF78940895D9
:100E2000CF93DF93C0E0D0E0FE01ED5AFE4F80810A
:100E30009181009771F02681222359F01682278133
:100E4000211107C0DC01ED91FC910480F581E02DBA
:100E500009952896C034D10539F7DF91CF910895CF
:100E60001F920F920FB60F9211240F931F932F937F
:100E70003F934F935F936F937F938F939F93AF9322
:100E8000BF93CF93DF93EF93FF93C3E5D1E000E0EF
:100E900010E08C819D81009721F001979D838C83C8
:100EA00018C08A819B819D838C83F801ED5AFE4F87
:100EB00086818F3F11F08F5F86838781882349F079
:100EC00088819981DC01ED91FC910480F581E02D10
:100ED0000995085F1F4F289600341105D1F68091BF
:100EE000930190919401A0919501B0919601019682
:100EF000A11DB11D8093930190939401A09395013E
:100F0000B0939601FF91EF91DF91CF91BF91AF9197
:100F10009F918F917F916F915F914F913F912F9111
:100F20001F910F910F900FBE0F901F90189582E5A3
:100F300091E00C94C8060F931F93CF93DF938C011D
:100F4000EB016991662321F0C8010E94BD06F9CF2B
:100F5000DF91CF911F910F9108950F931F93CF931E
:100F6000DF938C01EB016991662321F0C8010E9497
:100F7000BD06F9CFDF91CF911F910F9108958F9208
:100F80009F92AF92BF92CF92DF92EF92FF920F9318
:100F90001F93CF93DF93CDB7DEB72C970FB6F8949E
:100FA000DEBF0FBECDBF7C0177FF09C07095609595
:100FB000509541955F4F6F4F7F4F01E001C000E0BA
:100FC0001C861AE09AE0892E912CA12CB12CCC24FD
:100FD000C394D12CCC0EDD1EC10ED11CCB01BA01A5
:100FE000A50194010E94B608942F852F605DF6013B
:100FF0006083A901692F782F8FEF810F411551056B
:101000006105710511F0182FE2CF002349F0E1E0EE
:10101000F0E0EC0FFD1FE80FF11D9DE29083182F0B
:1010200061E070E06C0F7D1F610F711DC7010E94B0
:10103000AD072C960FB6F894DEBF0FBECDBFDF9183
:10104000CF911F910F91FF90EF90DF90CF90BF90C5
:10105000AF909F908F90089587E991E00C94AC0633
:1010600087E991E00C94BC060C947C030C947D03FE
:10107000FC01168A158A108E178A128E118E138E15
:10108000148A138A0C94F604CF93DF93EC010E9428
:101090007E03CE010E94B7039E8B8D8B4F89588DA6
:1010A0006FE1649F9001659F300D1124280F391F57
:1010B00037FF02C0215E3F4F45E0359527954A95A1
:1010C000E1F7388F2F8B821B930B9A8F898F863F86
:1010D0009F4F5CF48B899C89892B39F481E08B8F3D
:1010E00084E190E09C8B8B8B01C01B8E8B899C894B
:1010F000009719F001979C8B8B8BDF91CF9108950E
:10110000AA1BBB1B51E107C0AA1FBB1FA617B7072D
:1011100010F0A61BB70B881F991F5A95A9F7809549
:101120009095BC01CD010895A1E21A2EAA1BBB1B0C
:10113000FD010DC0AA1FBB1FEE1FFF1FA217B307A3
:10114000E407F50720F0A21BB30BE40BF50B661FB9
:10115000771F881F991F1A9469F76095709580957D
:1011600090959B01AC01BD01CF010895052E97FB21
:101170001EF400940E94CD0857FD07D00E949408E9
:1011800007FC03D04EF40C94CD0850954095309553
:1011900021953F4F4F4F5F4F0895909580957095E3
:1011A00061957F4F8F4F9F4F0895EE0FFF1F059062
:1011B000F491E02D0994CF93DF938230910510F4E0
:1011C00082E090E0E0919A01F0919B0120E030E014
:1011D000C0E0D0E0309711F14081518148175907A4
:1011E000C0F04817590761F482819381209719F064
:1011F0009B838A832BC090939B0180939A0126C086
:101200002115310519F04217530718F49A01BE0150
:10121000DF01EF010280F381E02DDCCF21153105E4
:1012200009F1281B390B2430310590F412968D9169
:101230009C9113976115710521F0FB0193838283C3
:1012400004C090939B0180939A01FD01329644C0A3
:10125000FD01E20FF31F81939193225031092D93E9
:101260003C933AC02091980130919901232B41F48D
:10127000209102013091030130939901209398014C
:1012800020910001309101012115310541F42DB764
:101290003EB74091040150910501241B350BE091AC
:1012A0009801F0919901E217F307A0F42E1B3F0B70
:1012B0002817390778F0AC014E5F5F4F24173507C8
:1012C00048F04E0F5F1F509399014093980181930E
:1012D000919302C0E0E0F0E0CF01DF91CF9108955B
:1012E0000F931F93CF93DF93009709F48CC0FC01F9
:1012F00032971382128200919A0110919B0101157D
:10130000110581F420813181820F931F2091980172
:10131000309199012817390779F5F0939901E093F5
:10132000980171C0D80140E050E0AE17BF0750F4FB
:1013300012962D913C911397AD012115310509F1BC
:10134000D901F3CF9D01DA0133832283608171815A
:10135000860F971F8217930769F4EC012881398162
:10136000260F371F2E5F3F4F318320838A819B8159
:1013700093838283452B29F4F0939B01E0939A0198
:1013800042C01396FC93EE931297ED014991599147
:101390009E01240F351FE217F30771F480819181BC
:1013A000840F951F029611969C938E938281938150
:1013B00013969C938E931297E0E0F0E0D80112967A
:1013C0008D919C911397009719F0F8018C01F6CF3D
:1013D0008D919C9198012E5F3F4F820F931F20911A
:1013E0009801309199012817390769F4309729F449
:1013F00010929B0110929A0102C0138212821093E4
:10140000990100939801DF91CF911F910F91089559
:1014100010E0C6E3D0E004C0FE010E94D50821968A
:0A142000C733D107C9F7F894FFCFD6
:10142A0000009C01200064697374616E636520008A
:10143A00696E697420726573756C7420000A74652C
:10144A00726D696E616C2072656164790A0A0000C6
:10145A0000000003031103D2029E026100A000EB08
:10146A00003C018D01ED01000000005002580262AB
:02147A0002006E
:00000001FF
